{
  "transactions": [
    {
      "hash": "0xfc9155ef5006232fe4400326fcfa7599a3cb7d7f651c3555a859a5a8afac7dc0",
      "transactionType": "CALL",
      "contractName": null,
      "contractAddress": "0xc2ddb71f3fe5205792095719fb10d9628e1e2517",
      "function": "settleSubscriber(address,address[],uint256[],address[],uint256[],uint256[])",
      "arguments": [
        "0x3f02Fc242CBf926A66D562c43Fe0CA6Bb33CDD08",
        "[0x0a9E8214B107cCe29A024d023a1E099CFDcc5C0f]",
        "[4297738801478806637]",
        "[0xd1be2e2fdf9D8A84ad77D066179623fA0e2faf56]",
        "[0]",
        "[0]"
      ],
      "transaction": {
        "from": "0xfabea8c75fe29baafcdc0afb3413cb5dfa11e310",
        "to": "0xc2ddb71f3fe5205792095719fb10d9628e1e2517",
        "gas": "0x1728b",
        "value": "0x0",
        "input": "0x49e664ff0000000000000000000000003f02fc242cbf926a66d562c43fe0ca6bb33cdd0800000000000000000000000000000000000000000000000000000000000000c000000000000000000000000000000000000000000000000000000000000001000000000000000000000000000000000000000000000000000000000000000140000000000000000000000000000000000000000000000000000000000000018000000000000000000000000000000000000000000000000000000000000001c000000000000000000000000000000000000000000000000000000000000000010000000000000000000000000a9e8214b107cce29a024d023a1e099cfdcc5c0f00000000000000000000000000000000000000000000000000000000000000010000000000000000000000000000000000000000000000003ba4a2ab678eac6d0000000000000000000000000000000000000000000000000000000000000001000000000000000000000000d1be2e2fdf9d8a84ad77d066179623fa0e2faf560000000000000000000000000000000000000000000000000000000000000001000000000000000000000000000000000000000000000000000000000000000000000000000000000000000000000000000000000000000000000000000000010000000000000000000000000000000000000000000000000000000000000000",
        "nonce": "0x48",
        "chainId": "0xaa36a7"
      },
      "additionalContracts": [],
      "isFixedGasLimit": false
    }
  ],
  "receipts": [
    {
      "status": "0x1",
      "cumulativeGasUsed": "0x5d415",
      "logs": [
        {
          "address": "0x3f02fc242cbf926a66d562c43fe0ca6bb33cdd08",
          "topics": [
            "0xddf252ad1be2c89b69c2b068fc378daa952ba7f163c4a11628f55a4df523b3ef",
            "0x000000000000000000000000c2ddb71f3fe5205792095719fb10d9628e1e2517",
            "0x0000000000000000000000000a9e8214b107cce29a024d023a1e099cfdcc5c0f"
          ],
          "data": "0x0000000000000000000000000000000000000000000000003ba4a2ab678eac6d",
          "blockHash": "0x2e3b362020c2523087a0324a5fbf610f32d795708ef6aca8a614c0f40a69e1d2",
          "blockNumber": "0x8ef992",
          "blockTimestamp": "0x68e69ca4",
          "transactionHash": "0xfc9155ef5006232fe4400326fcfa7599a3cb7d7f651c3555a859a5a8afac7dc0",
          "transactionIndex": "0x4",
          "logIndex": "0x1",
          "removed": false
        },
        {
          "address": "0xc2ddb71f3fe5205792095719fb10d9628e1e2517",
          "topics": [
            "0x27107ee7622d58a260ded013cac8dea85f6d4c3bf0be25357e4026fff1d79fc5",
            "0x000000000000000000000000c2ddb71f3fe5205792095719fb10d9628e1e2517"
          ],
          "data": "0x0000000000000000000000003f02fc242cbf926a66d562c43fe0ca6bb33cdd0800000000000000000000000000000000000000000000000000000000000000c000000000000000000000000000000000000000000000000000000000000001000000000000000000000000000000000000000000000000000000000000000140000000000000000000000000000000000000000000000000000000000000018000000000000000000000000000000000000000000000000000000000000001c000000000000000000000000000000000000000000000000000000000000000010000000000000000000000000a9e8214b107cce29a024d023a1e099cfdcc5c0f00000000000000000000000000000000000000000000000000000000000000010000000000000000000000000000000000000000000000003ba4a2ab678eac6d0000000000000000000000000000000000000000000000000000000000000001000000000000000000000000d1be2e2fdf9d8a84ad77d066179623fa0e2faf560000000000000000000000000000000000000000000000000000000000000001000000000000000000000000000000000000000000000000000000000000000000000000000000000000000000000000000000000000000000000000000000010000000000000000000000000000000000000000000000000000000000000000",
          "blockHash": "0x2e3b362020c2523087a0324a5fbf610f32d795708ef6aca8a614c0f40a69e1d2",
          "blockNumber": "0x8ef992",
          "blockTimestamp": "0x68e69ca4",
          "transactionHash": "0xfc9155ef5006232fe4400326fcfa7599a3cb7d7f651c3555a859a5a8afac7dc0",
          "transactionIndex": "0x4",
          "logIndex": "0x2",
          "removed": false
        }
      ],
      "logsBloom": "0x00000000000000000000000000000000000000000000000000000000000000000000000000001000000000200000000000000000000000000400000000200000000000000000000000000008000000000000000000000010000000000000004000000000000000000000000000000080001000000000100000002010000000000000000000000000000000000010000000000000000000000000000000000000000000000000000000000000400000000000000400000000000000000020000000000002000000000000000000000000000000000000000000000000000000008000000000000000000000000000000000000000000000000000000000000000",
      "type": "0x0",
      "transactionHash": "0xfc9155ef5006232fe4400326fcfa7599a3cb7d7f651c3555a859a5a8afac7dc0",
      "transactionIndex": "0x4",
      "blockHash": "0x2e3b362020c2523087a0324a5fbf610f32d795708ef6aca8a614c0f40a69e1d2",
      "blockNumber": "0x8ef992",
      "gasUsed": "0x10c45",
      "effectiveGasPrice": "0x2540be400",
      "from": "0xfabea8c75fe29baafcdc0afb3413cb5dfa11e310",
      "to": "0xc2ddb71f3fe5205792095719fb10d9628e1e2517",
      "contractAddress": null
    }
  ],
  "libraries": [],
  "pending": [],
  "returns": {},
  "timestamp": 1759943846543,
  "chain": 11155111,
  "commit": "8ede02c"
}