{
  "transactions": [
    {
      "hash": "0x8bf9de567fd4b92f1aa9812b2765bbb87b5ec32e9ec3cd3a514072bdcc57bf45",
      "transactionType": "CALL",
      "contractName": null,
      "contractAddress": "0x0a9e8214b107cce29a024d023a1e099cfdcc5c0f",
      "function": "mint(uint256,address,address)",
      "arguments": [
        "4297738801478806637",
        "0xfaBEa8C75Fe29bAafCDC0Afb3413cb5DFA11E310",
        "0xfaBEa8C75Fe29bAafCDC0Afb3413cb5DFA11E310"
      ],
      "transaction": {
        "from": "0xfabea8c75fe29baafcdc0afb3413cb5dfa11e310",
        "to": "0x0a9e8214b107cce29a024d023a1e099cfdcc5c0f",
        "gas": "0x1d797",
        "value": "0x0",
        "input": "0xda39b3e70000000000000000000000000000000000000000000000003ba4a2ab678eac6d000000000000000000000000fabea8c75fe29baafcdc0afb3413cb5dfa11e310000000000000000000000000fabea8c75fe29baafcdc0afb3413cb5dfa11e310",
        "nonce": "0x4a",
        "chainId": "0xaa36a7"
      },
      "additionalContracts": [],
      "isFixedGasLimit": false
    }
  ],
  "receipts": [
    {
      "status": "0x1",
      "cumulativeGasUsed": "0x1066ec",
      "logs": [
        {
          "address": "0x0a9e8214b107cce29a024d023a1e099cfdcc5c0f",
          "topics": [
            "0xddf252ad1be2c89b69c2b068fc378daa952ba7f163c4a11628f55a4df523b3ef",
            "0x0000000000000000000000000000000000000000000000000000000000000000",
            "0x000000000000000000000000fabea8c75fe29baafcdc0afb3413cb5dfa11e310"
          ],
          "data": "0x0000000000000000000000000000000000000000000000003ba4a2ab678eac6d",
          "blockHash": "0xff79f8b8bfb1376dbde2732ab2e2ce4fa6dfecf40e12a3f3c15a65ef93e995be",
          "blockNumber": "0x8ef9a6",
          "blockTimestamp": "0x68e69d94",
          "transactionHash": "0x8bf9de567fd4b92f1aa9812b2765bbb87b5ec32e9ec3cd3a514072bdcc57bf45",
          "transactionIndex": "0x3",
          "logIndex": "0x19",
          "removed": false
        },
        {
          "address": "0x0a9e8214b107cce29a024d023a1e099cfdcc5c0f",
          "topics": [
            "0xdcbc1c05240f31ff3ad067ef1ee35ce4997762752e3a095284754544f4c709d7",
            "0x000000000000000000000000fabea8c75fe29baafcdc0afb3413cb5dfa11e310",
            "0x000000000000000000000000fabea8c75fe29baafcdc0afb3413cb5dfa11e310"
          ],
          "data": "0x000000000000000000000000000000000000000000000000000000003b9aca000000000000000000000000000000000000000000000000003ba4a2ab678eac6d",
          "blockHash": "0xff79f8b8bfb1376dbde2732ab2e2ce4fa6dfecf40e12a3f3c15a65ef93e995be",
          "blockNumber": "0x8ef9a6",
          "blockTimestamp": "0x68e69d94",
          "transactionHash": "0x8bf9de567fd4b92f1aa9812b2765bbb87b5ec32e9ec3cd3a514072bdcc57bf45",
          "transactionIndex": "0x3",
          "logIndex": "0x1a",
          "removed": false
        }
      ],
      "logsBloom": "0x00000000000000000000000000000000000000000000000000000000000000000000000000000000000000000000000000000000000000000000000000000040000000400000000000000008000000000000000000000000000000000000000008000000020000000000000000000800000000000004000000000010000000000000000000000100000000000000000000000000000000800000000000000000000000000000000000000000000000000000000000000000000000000010000000000002000000000000000000000000000000000008000000000000000020000000000000000000000000000000000000000000000000000000000000002000",
      "type": "0x0",
      "transactionHash": "0x8bf9de567fd4b92f1aa9812b2765bbb87b5ec32e9ec3cd3a514072bdcc57bf45",
      "transactionIndex": "0x3",
      "blockHash": "0xff79f8b8bfb1376dbde2732ab2e2ce4fa6dfecf40e12a3f3c15a65ef93e995be",
      "blockNumber": "0x8ef9a6",
      "gasUsed": "0x1556d",
      "effectiveGasPrice": "0x2540be400",
      "from": "0xfabea8c75fe29baafcdc0afb3413cb5dfa11e310",
      "to": "0x0a9e8214b107cce29a024d023a1e099cfdcc5c0f",
      "contractAddress": null
    }
  ],
  "libraries": [],
  "pending": [],
  "returns": {},
  "timestamp": 1759944086245,
  "chain": 11155111,
  "commit": "8ede02c"
}