{
  "transactions": [
    {
      "hash": "0x0651c16841ed917a4dbb1c600201373cbe27bff696d8e012a999954165488bb3",
      "transactionType": "CALL",
      "contractName": null,
      "contractAddress": "0xd1be2e2fdf9d8a84ad77d066179623fa0e2faf56",
      "function": "approve(address,uint256)",
      "arguments": [
        "0x0a9E8214B107cCe29A024d023a1E099CFDcc5C0f",
        "1000000000"
      ],
      "transaction": {
        "from": "0xfabea8c75fe29baafcdc0afb3413cb5dfa11e310",
        "to": "0xd1be2e2fdf9d8a84ad77d066179623fa0e2faf56",
        "gas": "0x10657",
        "value": "0x0",
        "input": "0x095ea7b30000000000000000000000000a9e8214b107cce29a024d023a1e099cfdcc5c0f000000000000000000000000000000000000000000000000000000003b9aca00",
        "nonce": "0x45",
        "chainId": "0xaa36a7"
      },
      "additionalContracts": [],
      "isFixedGasLimit": false
    },
    {
      "hash": "0x04191e78f13e31b2309bba5a1065329bbfeaa2953a89af6ba578ae27870dfd2a",
      "transactionType": "CALL",
      "contractName": null,
      "contractAddress": "0x0a9e8214b107cce29a024d023a1e099cfdcc5c0f",
      "function": "requestDeposit(uint256,address,address)",
      "arguments": [
        "1000000000",
        "0xfaBEa8C75Fe29bAafCDC0Afb3413cb5DFA11E310",
        "0xfaBEa8C75Fe29bAafCDC0Afb3413cb5DFA11E310"
      ],
      "transaction": {
        "from": "0xfabea8c75fe29baafcdc0afb3413cb5dfa11e310",
        "to": "0x0a9e8214b107cce29a024d023a1e099cfdcc5c0f",
        "gas": "0x3044d",
        "value": "0x0",
        "input": "0x85b77f45000000000000000000000000000000000000000000000000000000003b9aca00000000000000000000000000fabea8c75fe29baafcdc0afb3413cb5dfa11e310000000000000000000000000fabea8c75fe29baafcdc0afb3413cb5dfa11e310",
        "nonce": "0x46",
        "chainId": "0xaa36a7"
      },
      "additionalContracts": [],
      "isFixedGasLimit": false
    },
    {
      "hash": "0x9c9e46fdfe1d1b75484a8d0cf58791a94b7446f9d43d0ff509c3dd1e4a872fb2",
      "transactionType": "CALL",
      "contractName": null,
      "contractAddress": "0x0a9e8214b107cce29a024d023a1e099cfdcc5c0f",
      "function": "forwardRequestsToDigift()",
      "arguments": [],
      "transaction": {
        "from": "0xfabea8c75fe29baafcdc0afb3413cb5dfa11e310",
        "to": "0x0a9e8214b107cce29a024d023a1e099cfdcc5c0f",
        "gas": "0x23884",
        "value": "0x0",
        "input": "0x7155e2a7",
        "nonce": "0x47",
        "chainId": "0xaa36a7"
      },
      "additionalContracts": [],
      "isFixedGasLimit": false
    }
  ],
  "receipts": [
    {
      "status": "0x1",
      "cumulativeGasUsed": "0x75cfd",
      "logs": [
        {
          "address": "0xd1be2e2fdf9d8a84ad77d066179623fa0e2faf56",
          "topics": [
            "0x8c5be1e5ebec7d5bd14f71427d1e84f3dd0314c0f7b2291e5b200ac8c7c3b925",
            "0x000000000000000000000000fabea8c75fe29baafcdc0afb3413cb5dfa11e310",
            "0x0000000000000000000000000a9e8214b107cce29a024d023a1e099cfdcc5c0f"
          ],
          "data": "0x000000000000000000000000000000000000000000000000000000003b9aca00",
          "blockHash": "0x55f6615f9d4d643816595fec1783e49a423c1513b77a7f27af3f07199569c9e0",
          "blockNumber": "0x8ef98f",
          "blockTimestamp": "0x68e69c80",
          "transactionHash": "0x0651c16841ed917a4dbb1c600201373cbe27bff696d8e012a999954165488bb3",
          "transactionIndex": "0x3",
          "logIndex": "0x2",
          "removed": false
        }
      ],
      "logsBloom": "0x00000000000000000000000000000000000000000000000000000000000000000000000000000000000000200000000000000000000000000000000000200000000003000000000000000000000000000000000000000000000000000000000008000000000000000000000000000000001000000000000000000000000000000000001000000000000000000000000000000000000000000000000000000000020000000000000000000000000000000000000000000000000000000010000000000000000000000000000000000000000000000000000000000000000000008010000000000000000000000000000000000000000000000000000000002000",
      "type": "0x0",
      "transactionHash": "0x0651c16841ed917a4dbb1c600201373cbe27bff696d8e012a999954165488bb3",
      "transactionIndex": "0x3",
      "blockHash": "0x55f6615f9d4d643816595fec1783e49a423c1513b77a7f27af3f07199569c9e0",
      "blockNumber": "0x8ef98f",
      "gasUsed": "0xb361",
      "effectiveGasPrice": "0x2540be400",
      "from": "0xfabea8c75fe29baafcdc0afb3413cb5dfa11e310",
      "to": "0xd1be2e2fdf9d8a84ad77d066179623fa0e2faf56",
      "contractAddress": null
    },
    {
      "status": "0x1",
      "cumulativeGasUsed": "0x96d0f",
      "logs": [
        {
          "address": "0xd1be2e2fdf9d8a84ad77d066179623fa0e2faf56",
          "topics": [
            "0xddf252ad1be2c89b69c2b068fc378daa952ba7f163c4a11628f55a4df523b3ef",
            "0x000000000000000000000000fabea8c75fe29baafcdc0afb3413cb5dfa11e310",
            "0x0000000000000000000000000a9e8214b107cce29a024d023a1e099cfdcc5c0f"
          ],
          "data": "0x000000000000000000000000000000000000000000000000000000003b9aca00",
          "blockHash": "0x55f6615f9d4d643816595fec1783e49a423c1513b77a7f27af3f07199569c9e0",
          "blockNumber": "0x8ef98f",
          "blockTimestamp": "0x68e69c80",
          "transactionHash": "0x04191e78f13e31b2309bba5a1065329bbfeaa2953a89af6ba578ae27870dfd2a",
          "transactionIndex": "0x4",
          "logIndex": "0x3",
          "removed": false
        },
        {
          "address": "0x0a9e8214b107cce29a024d023a1e099cfdcc5c0f",
          "topics": [
            "0xbb58420bb8ce44e11b84e214cc0de10ce5e7c24d0355b2815c3d758b514cae72",
            "0x000000000000000000000000fabea8c75fe29baafcdc0afb3413cb5dfa11e310",
            "0x000000000000000000000000fabea8c75fe29baafcdc0afb3413cb5dfa11e310",
            "0x0000000000000000000000000000000000000000000000000000000000000000"
          ],
          "data": "0x000000000000000000000000fabea8c75fe29baafcdc0afb3413cb5dfa11e310000000000000000000000000000000000000000000000000000000003b9aca00",
          "blockHash": "0x55f6615f9d4d643816595fec1783e49a423c1513b77a7f27af3f07199569c9e0",
          "blockNumber": "0x8ef98f",
          "blockTimestamp": "0x68e69c80",
          "transactionHash": "0x04191e78f13e31b2309bba5a1065329bbfeaa2953a89af6ba578ae27870dfd2a",
          "transactionIndex": "0x4",
          "logIndex": "0x4",
          "removed": false
        }
      ],
      "logsBloom": "0x00000000000000000000000000000000000000000000000000000000000000000000000000000000000000200000000000000000000000000000000000000040000003000000000000000008000000000000000000000000000000000000000008000000020000000000000000000800001000000000000000000010001000000000001000000100000000000000000000000000000000800000000000000000000000000010000000000000000000000000000000000000000000000010000000000002000000000000000000000000000000000000000000000000000020008000000000000000000000000000000000000000000000000000000000002000",
      "type": "0x0",
      "transactionHash": "0x04191e78f13e31b2309bba5a1065329bbfeaa2953a89af6ba578ae27870dfd2a",
      "transactionIndex": "0x4",
      "blockHash": "0x55f6615f9d4d643816595fec1783e49a423c1513b77a7f27af3f07199569c9e0",
      "blockNumber": "0x8ef98f",
      "gasUsed": "0x21012",
      "effectiveGasPrice": "0x2540be400",
      "from": "0xfabea8c75fe29baafcdc0afb3413cb5dfa11e310",
      "to": "0x0a9e8214b107cce29a024d023a1e099cfdcc5c0f",
      "contractAddress": null
    },
    {
      "status": "0x1",
      "cumulativeGasUsed": "0xaf1ca",
      "logs": [
        {
          "address": "0xd1be2e2fdf9d8a84ad77d066179623fa0e2faf56",
          "topics": [
            "0x8c5be1e5ebec7d5bd14f71427d1e84f3dd0314c0f7b2291e5b200ac8c7c3b925",
            "0x0000000000000000000000000a9e8214b107cce29a024d023a1e099cfdcc5c0f",
            "0x000000000000000000000000c2ddb71f3fe5205792095719fb10d9628e1e2517"
          ],
          "data": "0x000000000000000000000000000000000000000000000000000000003b9aca00",
          "blockHash": "0x55f6615f9d4d643816595fec1783e49a423c1513b77a7f27af3f07199569c9e0",
          "blockNumber": "0x8ef98f",
          "blockTimestamp": "0x68e69c80",
          "transactionHash": "0x9c9e46fdfe1d1b75484a8d0cf58791a94b7446f9d43d0ff509c3dd1e4a872fb2",
          "transactionIndex": "0x5",
          "logIndex": "0x5",
          "removed": false
        },
        {
          "address": "0xd1be2e2fdf9d8a84ad77d066179623fa0e2faf56",
          "topics": [
            "0xddf252ad1be2c89b69c2b068fc378daa952ba7f163c4a11628f55a4df523b3ef",
            "0x0000000000000000000000000a9e8214b107cce29a024d023a1e099cfdcc5c0f",
            "0x000000000000000000000000c2ddb71f3fe5205792095719fb10d9628e1e2517"
          ],
          "data": "0x000000000000000000000000000000000000000000000000000000003b9aca00",
          "blockHash": "0x55f6615f9d4d643816595fec1783e49a423c1513b77a7f27af3f07199569c9e0",
          "blockNumber": "0x8ef98f",
          "blockTimestamp": "0x68e69c80",
          "transactionHash": "0x9c9e46fdfe1d1b75484a8d0cf58791a94b7446f9d43d0ff509c3dd1e4a872fb2",
          "transactionIndex": "0x5",
          "logIndex": "0x6",
          "removed": false
        },
        {
          "address": "0xc2ddb71f3fe5205792095719fb10d9628e1e2517",
          "topics": [
            "0x85e11623cf3455bd06de236e6eb13e21a2e641a61b12b9b3737cf28297b2d19b",
            "0x000000000000000000000000c2ddb71f3fe5205792095719fb10d9628e1e2517"
          ],
          "data": "0x0000000000000000000000003f02fc242cbf926a66d562c43fe0ca6bb33cdd08000000000000000000000000d1be2e2fdf9d8a84ad77d066179623fa0e2faf560000000000000000000000000a9e8214b107cce29a024d023a1e099cfdcc5c0f000000000000000000000000000000000000000000000000000000003b9aca00",
          "blockHash": "0x55f6615f9d4d643816595fec1783e49a423c1513b77a7f27af3f07199569c9e0",
          "blockNumber": "0x8ef98f",
          "blockTimestamp": "0x68e69c80",
          "transactionHash": "0x9c9e46fdfe1d1b75484a8d0cf58791a94b7446f9d43d0ff509c3dd1e4a872fb2",
          "transactionIndex": "0x5",
          "logIndex": "0x7",
          "removed": false
        },
        {
          "address": "0x0a9e8214b107cce29a024d023a1e099cfdcc5c0f",
          "topics": [
            "0x48be6af4e6e14b82b5291f61c592f710a948c310c2f575bce074c8f3ffbeb3a8"
          ],
          "data": "0x000000000000000000000000000000000000000000000000000000003b9aca00",
          "blockHash": "0x55f6615f9d4d643816595fec1783e49a423c1513b77a7f27af3f07199569c9e0",
          "blockNumber": "0x8ef98f",
          "blockTimestamp": "0x68e69c80",
          "transactionHash": "0x9c9e46fdfe1d1b75484a8d0cf58791a94b7446f9d43d0ff509c3dd1e4a872fb2",
          "transactionIndex": "0x5",
          "logIndex": "0x8",
          "removed": false
        }
      ],
      "logsBloom": "0x20000000000000000000000000000000000000000000000000000000000000000000000000000000000000200000000000000000000000000400000000200040000003000000000000000008000000000000000000000000000000000000004000000000000000000000000000000000001000000000100000002010000000000000001000000100000000000000000000000000000000800000800000000000020000000000000000000000000000000000000000000400000000000020000000000002000000000000000000000000000000000001000000000000000000008010000000000000100000000000800000000000000000000000000000000000",
      "type": "0x0",
      "transactionHash": "0x9c9e46fdfe1d1b75484a8d0cf58791a94b7446f9d43d0ff509c3dd1e4a872fb2",
      "transactionIndex": "0x5",
      "blockHash": "0x55f6615f9d4d643816595fec1783e49a423c1513b77a7f27af3f07199569c9e0",
      "blockNumber": "0x8ef98f",
      "gasUsed": "0x184bb",
      "effectiveGasPrice": "0x2540be400",
      "from": "0xfabea8c75fe29baafcdc0afb3413cb5dfa11e310",
      "to": "0x0a9e8214b107cce29a024d023a1e099cfdcc5c0f",
      "contractAddress": null
    }
  ],
  "libraries": [],
  "pending": [],
  "returns": {},
  "timestamp": 1759943808404,
  "chain": 11155111,
  "commit": "8ede02c"
}