{
  "transactions": [
    {
      "hash": "0x2b6794f315d33f1dce20d6b6b9109d5b480dc6252de3efaea1ffe1c780205873",
      "transactionType": "CALL",
      "contractName": null,
      "contractAddress": "0x6dae8357d49c5e6f420190ae2854a1417d70279f",
      "function": "approve(address,uint256)",
      "arguments": [
        "0x122084a798A2479577ee7d133e5b16f996F296d9",
        "1000000000"
      ],
      "transaction": {
        "from": "0xfabea8c75fe29baafcdc0afb3413cb5dfa11e310",
        "to": "0x6dae8357d49c5e6f420190ae2854a1417d70279f",
        "gas": "0x10657",
        "value": "0x0",
        "input": "0x095ea7b3000000000000000000000000122084a798a2479577ee7d133e5b16f996f296d9000000000000000000000000000000000000000000000000000000003b9aca00",
        "nonce": "0x14",
        "chainId": "0xaa36a7"
      },
      "additionalContracts": [],
      "isFixedGasLimit": false
    },
    {
      "hash": "0x17ef5d57d25d2495d52a4f23799210246b5949697891a33410616492df5fd653",
      "transactionType": "CALL",
      "contractName": null,
      "contractAddress": "0x122084a798a2479577ee7d133e5b16f996f296d9",
      "function": "requestDeposit(uint256,address,address)",
      "arguments": [
        "1000000000",
        "0xfaBEa8C75Fe29bAafCDC0Afb3413cb5DFA11E310",
        "0xfaBEa8C75Fe29bAafCDC0Afb3413cb5DFA11E310"
      ],
      "transaction": {
        "from": "0xfabea8c75fe29baafcdc0afb3413cb5dfa11e310",
        "to": "0x122084a798a2479577ee7d133e5b16f996f296d9",
        "gas": "0x3044d",
        "value": "0x0",
        "input": "0x85b77f45000000000000000000000000000000000000000000000000000000003b9aca00000000000000000000000000fabea8c75fe29baafcdc0afb3413cb5dfa11e310000000000000000000000000fabea8c75fe29baafcdc0afb3413cb5dfa11e310",
        "nonce": "0x15",
        "chainId": "0xaa36a7"
      },
      "additionalContracts": [],
      "isFixedGasLimit": false
    },
    {
      "hash": "0xbcaa7407d3477c8a2712d780ef030f11db407e450770d238b00e43fe36b55e3f",
      "transactionType": "CALL",
      "contractName": null,
      "contractAddress": "0x122084a798a2479577ee7d133e5b16f996f296d9",
      "function": "forwardRequestsToDigift()",
      "arguments": [],
      "transaction": {
        "from": "0xfabea8c75fe29baafcdc0afb3413cb5dfa11e310",
        "to": "0x122084a798a2479577ee7d133e5b16f996f296d9",
        "gas": "0x23884",
        "value": "0x0",
        "input": "0x7155e2a7",
        "nonce": "0x16",
        "chainId": "0xaa36a7"
      },
      "additionalContracts": [],
      "isFixedGasLimit": false
    }
  ],
  "receipts": [
    {
      "status": "0x1",
      "cumulativeGasUsed": "0xb361",
      "logs": [
        {
          "address": "0x6dae8357d49c5e6f420190ae2854a1417d70279f",
          "topics": [
            "0x8c5be1e5ebec7d5bd14f71427d1e84f3dd0314c0f7b2291e5b200ac8c7c3b925",
            "0x000000000000000000000000fabea8c75fe29baafcdc0afb3413cb5dfa11e310",
            "0x000000000000000000000000122084a798a2479577ee7d133e5b16f996f296d9"
          ],
          "data": "0x000000000000000000000000000000000000000000000000000000003b9aca00",
          "blockHash": "0x5895514173ae0fd6f6d06f5cee33458f7b5a2d26805c8981c7d6b30468504636",
          "blockNumber": "0x8ef41c",
          "blockTimestamp": "0x68e65930",
          "transactionHash": "0x2b6794f315d33f1dce20d6b6b9109d5b480dc6252de3efaea1ffe1c780205873",
          "transactionIndex": "0x0",
          "logIndex": "0x0",
          "removed": false
        }
      ],
      "logsBloom": "0x00000000000000000000000000000000000000000000000000000000000000000000000000000000000000000000000000000000000000000000000000200000000000000000000000000000000000000000000000000000000000000000000008000000000000000000000000000000000400000000000100000000000000000000000000080000000000000000000000000000000000001000008000000000020000000000000000000000000000000000000000000000000000000010000000000000000000000000000000000000000000000000000000000000000000000010000000000000000000000000800000000000000000000000000000002000",
      "type": "0x0",
      "transactionHash": "0x2b6794f315d33f1dce20d6b6b9109d5b480dc6252de3efaea1ffe1c780205873",
      "transactionIndex": "0x0",
      "blockHash": "0x5895514173ae0fd6f6d06f5cee33458f7b5a2d26805c8981c7d6b30468504636",
      "blockNumber": "0x8ef41c",
      "gasUsed": "0xb361",
      "effectiveGasPrice": "0x6fc23ac00",
      "from": "0xfabea8c75fe29baafcdc0afb3413cb5dfa11e310",
      "to": "0x6dae8357d49c5e6f420190ae2854a1417d70279f",
      "contractAddress": null
    },
    {
      "status": "0x1",
      "cumulativeGasUsed": "0x2c373",
      "logs": [
        {
          "address": "0x6dae8357d49c5e6f420190ae2854a1417d70279f",
          "topics": [
            "0xddf252ad1be2c89b69c2b068fc378daa952ba7f163c4a11628f55a4df523b3ef",
            "0x000000000000000000000000fabea8c75fe29baafcdc0afb3413cb5dfa11e310",
            "0x000000000000000000000000122084a798a2479577ee7d133e5b16f996f296d9"
          ],
          "data": "0x000000000000000000000000000000000000000000000000000000003b9aca00",
          "blockHash": "0x5895514173ae0fd6f6d06f5cee33458f7b5a2d26805c8981c7d6b30468504636",
          "blockNumber": "0x8ef41c",
          "blockTimestamp": "0x68e65930",
          "transactionHash": "0x17ef5d57d25d2495d52a4f23799210246b5949697891a33410616492df5fd653",
          "transactionIndex": "0x1",
          "logIndex": "0x1",
          "removed": false
        },
        {
          "address": "0x122084a798a2479577ee7d133e5b16f996f296d9",
          "topics": [
            "0xbb58420bb8ce44e11b84e214cc0de10ce5e7c24d0355b2815c3d758b514cae72",
            "0x000000000000000000000000fabea8c75fe29baafcdc0afb3413cb5dfa11e310",
            "0x000000000000000000000000fabea8c75fe29baafcdc0afb3413cb5dfa11e310",
            "0x0000000000000000000000000000000000000000000000000000000000000000"
          ],
          "data": "0x000000000000000000000000fabea8c75fe29baafcdc0afb3413cb5dfa11e310000000000000000000000000000000000000000000000000000000003b9aca00",
          "blockHash": "0x5895514173ae0fd6f6d06f5cee33458f7b5a2d26805c8981c7d6b30468504636",
          "blockNumber": "0x8ef41c",
          "blockTimestamp": "0x68e65930",
          "transactionHash": "0x17ef5d57d25d2495d52a4f23799210246b5949697891a33410616492df5fd653",
          "transactionIndex": "0x1",
          "logIndex": "0x2",
          "removed": false
        }
      ],
      "logsBloom": "0x00000000000000000000000000000000000000000000000000000000000000000000000000000000000000000000000000000000000000000000000000000000000000000000000000000008000000000000001000000000000000000000000008000000020000000000000000000800000400000000000100000010001000000000000000080000000000000000000000000010000000801000008000000000000000000010000000000000000000000000000000000000000000008010000000000002000000000000000000000000000000000000000000000000000020000000000000000000000000000000800000000000000000000000000000002000",
      "type": "0x0",
      "transactionHash": "0x17ef5d57d25d2495d52a4f23799210246b5949697891a33410616492df5fd653",
      "transactionIndex": "0x1",
      "blockHash": "0x5895514173ae0fd6f6d06f5cee33458f7b5a2d26805c8981c7d6b30468504636",
      "blockNumber": "0x8ef41c",
      "gasUsed": "0x21012",
      "effectiveGasPrice": "0x6fc23ac00",
      "from": "0xfabea8c75fe29baafcdc0afb3413cb5dfa11e310",
      "to": "0x122084a798a2479577ee7d133e5b16f996f296d9",
      "contractAddress": null
    },
    {
      "status": "0x1",
      "cumulativeGasUsed": "0x4482e",
      "logs": [
        {
          "address": "0x6dae8357d49c5e6f420190ae2854a1417d70279f",
          "topics": [
            "0x8c5be1e5ebec7d5bd14f71427d1e84f3dd0314c0f7b2291e5b200ac8c7c3b925",
            "0x000000000000000000000000122084a798a2479577ee7d133e5b16f996f296d9",
            "0x000000000000000000000000df411e71946b9e78e526feff63d9bb5ac1b9f3a6"
          ],
          "data": "0x000000000000000000000000000000000000000000000000000000003b9aca00",
          "blockHash": "0x5895514173ae0fd6f6d06f5cee33458f7b5a2d26805c8981c7d6b30468504636",
          "blockNumber": "0x8ef41c",
          "blockTimestamp": "0x68e65930",
          "transactionHash": "0xbcaa7407d3477c8a2712d780ef030f11db407e450770d238b00e43fe36b55e3f",
          "transactionIndex": "0x2",
          "logIndex": "0x3",
          "removed": false
        },
        {
          "address": "0x6dae8357d49c5e6f420190ae2854a1417d70279f",
          "topics": [
            "0xddf252ad1be2c89b69c2b068fc378daa952ba7f163c4a11628f55a4df523b3ef",
            "0x000000000000000000000000122084a798a2479577ee7d133e5b16f996f296d9",
            "0x000000000000000000000000df411e71946b9e78e526feff63d9bb5ac1b9f3a6"
          ],
          "data": "0x000000000000000000000000000000000000000000000000000000003b9aca00",
          "blockHash": "0x5895514173ae0fd6f6d06f5cee33458f7b5a2d26805c8981c7d6b30468504636",
          "blockNumber": "0x8ef41c",
          "blockTimestamp": "0x68e65930",
          "transactionHash": "0xbcaa7407d3477c8a2712d780ef030f11db407e450770d238b00e43fe36b55e3f",
          "transactionIndex": "0x2",
          "logIndex": "0x4",
          "removed": false
        },
        {
          "address": "0xdf411e71946b9e78e526feff63d9bb5ac1b9f3a6",
          "topics": [
            "0x85e11623cf3455bd06de236e6eb13e21a2e641a61b12b9b3737cf28297b2d19b",
            "0x000000000000000000000000df411e71946b9e78e526feff63d9bb5ac1b9f3a6"
          ],
          "data": "0x000000000000000000000000abdd8ed3e574f3cad2bd1dba1b5b8142056993ea0000000000000000000000006dae8357d49c5e6f420190ae2854a1417d70279f000000000000000000000000122084a798a2479577ee7d133e5b16f996f296d9000000000000000000000000000000000000000000000000000000003b9aca00",
          "blockHash": "0x5895514173ae0fd6f6d06f5cee33458f7b5a2d26805c8981c7d6b30468504636",
          "blockNumber": "0x8ef41c",
          "blockTimestamp": "0x68e65930",
          "transactionHash": "0xbcaa7407d3477c8a2712d780ef030f11db407e450770d238b00e43fe36b55e3f",
          "transactionIndex": "0x2",
          "logIndex": "0x5",
          "removed": false
        },
        {
          "address": "0x122084a798a2479577ee7d133e5b16f996f296d9",
          "topics": [
            "0x48be6af4e6e14b82b5291f61c592f710a948c310c2f575bce074c8f3ffbeb3a8"
          ],
          "data": "0x000000000000000000000000000000000000000000000000000000003b9aca00",
          "blockHash": "0x5895514173ae0fd6f6d06f5cee33458f7b5a2d26805c8981c7d6b30468504636",
          "blockNumber": "0x8ef41c",
          "blockTimestamp": "0x68e65930",
          "transactionHash": "0xbcaa7407d3477c8a2712d780ef030f11db407e450770d238b00e43fe36b55e3f",
          "transactionIndex": "0x2",
          "logIndex": "0x6",
          "removed": false
        }
      ],
      "logsBloom": "0x20000000000000000000000000000000000000000000000010000000010000000000000000000000000000000000000000000000000000000000000000200000000000000400000000000008000000000000001000000000000000000080000000000000000000000000000000000000000400000000000100000010000000000000000000080000000000000000000000000010000000001000808000000000020000000000000000000000000000000000000000000400000000008000000000000802000000000000000000000000000000000001000000000000000000000010000000400000100000000000800000000000000000000000000000000000",
      "type": "0x0",
      "transactionHash": "0xbcaa7407d3477c8a2712d780ef030f11db407e450770d238b00e43fe36b55e3f",
      "transactionIndex": "0x2",
      "blockHash": "0x5895514173ae0fd6f6d06f5cee33458f7b5a2d26805c8981c7d6b30468504636",
      "blockNumber": "0x8ef41c",
      "gasUsed": "0x184bb",
      "effectiveGasPrice": "0x6fc23ac00",
      "from": "0xfabea8c75fe29baafcdc0afb3413cb5dfa11e310",
      "to": "0x122084a798a2479577ee7d133e5b16f996f296d9",
      "contractAddress": null
    }
  ],
  "libraries": [],
  "pending": [],
  "returns": {},
  "timestamp": 1759926576837,
  "chain": 11155111,
  "commit": "45773c8"
}