{
  "transactions": [
    {
      "hash": "0x56126c209a2b90849368bab4ac4cb14c88d3b9ad57b9eb0c85267f0c1ffb44ba",
      "transactionType": "CREATE",
      "contractName": "PriceOracleMock",
      "contractAddress": "0x8c549fd544a66c2c951c5f6cd0243fbda95cf701",
      "function": null,
      "arguments": [
        "8"
      ],
      "transaction": {
        "from": "0xfabea8c75fe29baafcdc0afb3413cb5dfa11e310",
        "gas": "0x6e112",
        "value": "0x0",
        "input": "0x608060405234801561000f575f5ffd5b5060405161057638038061057683398101604081905261002e916100d6565b338061005357604051631e4fbdf760e01b81525f600482015260240160405180910390fd5b61005c81610087565b506004805460ff9092166a01000000000000000000000260ff60501b199092169190911790556100fd565b5f80546001600160a01b038381166001600160a01b0319831681178455604051919092169283917f8be0079c531659141344cd1fd0a4f28419497f9722a3daafe3b4186f6b6457e09190a35050565b5f602082840312156100e6575f5ffd5b815160ff811681146100f6575f5ffd5b9392505050565b61046c8061010a5f395ff3fe608060405234801561000f575f5ffd5b50600436106100cf575f3560e01c80638da5cb5b1161007d578063f21f537d11610058578063f21f537d146101b1578063f2fde38b146101ba578063feaf968c146101cd575f5ffd5b80638da5cb5b1461017957806398d5fdca14610193578063c22c24991461019b575f5ffd5b80637519ab50116100ad5780637519ab501461012257806385bb7d69146101395780638cd221c914610142575f5ffd5b8063313ce567146100d35780634005e68114610105578063715018a61461011a575b5f5ffd5b6004546100ee906a0100000000000000000000900460ff1681565b60405160ff90911681526020015b60405180910390f35b6101186101133660046103bd565b610218565b005b610118610285565b61012b60035481565b6040519081526020016100fc565b61012b60015481565b5f5461015e90600160a01b900469ffffffffffffffffffff1681565b60405169ffffffffffffffffffff90911681526020016100fc565b5f546040516001600160a01b0390911681526020016100fc565b60015461012b565b60045461015e9069ffffffffffffffffffff1681565b61012b60025481565b6101186101c8366004610409565b610298565b5f5460015460025460035460045460408051600160a01b90960469ffffffffffffffffffff90811687526020870195909552850192909252606084015216608082015260a0016100fc565b6102206102f3565b5f80547fffff00000000000000000000ffffffffffffffffffffffffffffffffffffffff16600160a01b69ffffffffffffffffffff978816021790556001939093556002919091556003556004805469ffffffffffffffffffff191691909216179055565b61028d6102f3565b6102965f610338565b565b6102a06102f3565b6001600160a01b0381166102e7576040517f1e4fbdf70000000000000000000000000000000000000000000000000000000081525f60048201526024015b60405180910390fd5b6102f081610338565b50565b5f546001600160a01b03163314610296576040517f118cdaa70000000000000000000000000000000000000000000000000000000081523360048201526024016102de565b5f80546001600160a01b038381167fffffffffffffffffffffffff0000000000000000000000000000000000000000831681178455604051919092169283917f8be0079c531659141344cd1fd0a4f28419497f9722a3daafe3b4186f6b6457e09190a35050565b803569ffffffffffffffffffff811681146103b8575f5ffd5b919050565b5f5f5f5f5f60a086880312156103d1575f5ffd5b6103da8661039f565b94506020860135935060408601359250606086013591506103fd6080870161039f565b90509295509295909350565b5f60208284031215610419575f5ffd5b81356001600160a01b038116811461042f575f5ffd5b939250505056fea264697066735822122002198ec51fa4262b96dbe3552767e9f9e85d73ffa3dfe2930bded7b6033761c964736f6c634300081c00330000000000000000000000000000000000000000000000000000000000000008",
        "nonce": "0xc7",
        "chainId": "0xaa36a7"
      },
      "additionalContracts": [],
      "isFixedGasLimit": false
    },
    {
      "hash": "0x46b54e613e549aec1afb14c75cc126229d469873b70af33ed4cbc0e8299f37a7",
      "transactionType": "CALL",
      "contractName": "PriceOracleMock",
      "contractAddress": "0x8c549fd544a66c2c951c5f6cd0243fbda95cf701",
      "function": "setLatestRoundData(uint80,int256,uint256,uint256,uint80)",
      "arguments": [
        "18446744073709556890",
        "99974000",
        "1766136588",
        "1766136588",
        "18446744073709556890"
      ],
      "transaction": {
        "from": "0xfabea8c75fe29baafcdc0afb3413cb5dfa11e310",
        "to": "0x8c549fd544a66c2c951c5f6cd0243fbda95cf701",
        "gas": "0x21604",
        "value": "0x0",
        "input": "0x4005e681000000000000000000000000000000000000000000000001000000000000149a0000000000000000000000000000000000000000000000000000000005f57b700000000000000000000000000000000000000000000000000000000069451b0c0000000000000000000000000000000000000000000000000000000069451b0c000000000000000000000000000000000000000000000001000000000000149a",
        "nonce": "0xc8",
        "chainId": "0xaa36a7"
      },
      "additionalContracts": [],
      "isFixedGasLimit": false
    },
    {
      "hash": "0x1e8b3ec39138a3e5464c65626adae9e0dde1bf7801a06fdc43f6c5ff5a696dde",
      "transactionType": "CALL",
      "contractName": null,
      "contractAddress": "0x9bd72bf03f0f791e424786765a8f72c3b13f08f3",
      "function": "deploy((string,string,address,address,address,address,uint64,uint64,uint64,uint64,uint256,uint256))",
      "arguments": [
        "(iSNR Wrapper, wiSNR, 0xc40fA5d8CF408BAA63019137033D2698377fB243, 0x8C549fD544a66C2C951C5F6Cd0243FbDa95CF701, 0x3c4A0E537ED48430A7574a04b100B27E010Ec700, 0x743Be7f24caA96DF8cf27413b43a5D916E4d0C29, 1000000000000000, 10000000000000000, 172800, 86400, 1000000000, 1000000000000000000)"
      ],
      "transaction": {
        "from": "0xfabea8c75fe29baafcdc0afb3413cb5dfa11e310",
        "to": "0x9bd72bf03f0f791e424786765a8f72c3b13f08f3",
        "gas": "0x9889a",
        "value": "0x0",
        "input": "0x1fc3a6dd0000000000000000000000000000000000000000000000000000000000000020000000000000000000000000000000000000000000000000000000000000018000000000000000000000000000000000000000000000000000000000000001c0000000000000000000000000c40fa5d8cf408baa63019137033d2698377fb2430000000000000000000000008c549fd544a66c2c951c5f6cd0243fbda95cf7010000000000000000000000003c4a0e537ed48430a7574a04b100b27e010ec700000000000000000000000000743be7f24caa96df8cf27413b43a5d916e4d0c2900000000000000000000000000000000000000000000000000038d7ea4c68000000000000000000000000000000000000000000000000000002386f26fc10000000000000000000000000000000000000000000000000000000000000002a3000000000000000000000000000000000000000000000000000000000000015180000000000000000000000000000000000000000000000000000000003b9aca000000000000000000000000000000000000000000000000000de0b6b3a7640000000000000000000000000000000000000000000000000000000000000000000c69534e522057726170706572000000000000000000000000000000000000000000000000000000000000000000000000000000000000000000000000000000057769534e52000000000000000000000000000000000000000000000000000000",
        "nonce": "0xc9",
        "chainId": "0xaa36a7"
      },
      "additionalContracts": [
        {
          "transactionType": "CREATE",
          "contractName": "BeaconProxy",
          "address": "0xfc33f2d6427dcb632502f179e7b867f445b8a67c",
          "initCode": "0x60a060405260405161059d38038061059d83398101604081905261002291610354565b61002c828261003e565b506001600160a01b0316608052610445565b610047826100fb565b6040516001600160a01b038316907f1cf3b03a6cf19fa2baba4df148e9dcabedea7f8a5c07840e207e5c089be95d3e905f90a28051156100ef576100ea826001600160a01b0316635c60da1b6040518163ffffffff1660e01b8152600401602060405180830381865afa1580156100c0573d5f5f3e3d5ffd5b505050506040513d601f19601f820116820180604052508101906100e49190610416565b82610209565b505050565b6100f761027c565b5050565b806001600160a01b03163b5f0361013557604051631933b43b60e21b81526001600160a01b03821660048201526024015b60405180910390fd5b807fa3f0ad74e5423aebfd80d3ef4346578335a9a72aeaee59ff6cb3582b35133d5080546001600160a01b0319166001600160a01b0392831617905560408051635c60da1b60e01b815290515f92841691635c60da1b9160048083019260209291908290030181865afa1580156101ae573d5f5f3e3d5ffd5b505050506040513d601f19601f820116820180604052508101906101d29190610416565b9050806001600160a01b03163b5f036100f757604051634c9c8ce360e01b81526001600160a01b038216600482015260240161012c565b60605f5f846001600160a01b031684604051610225919061042f565b5f60405180830381855af49150503d805f811461025d576040519150601f19603f3d011682016040523d82523d5f602084013e610262565b606091505b50909250905061027385838361029d565b95945050505050565b341561029b5760405163b398979f60e01b815260040160405180910390fd5b565b6060826102b2576102ad826102fc565b6102f5565b81511580156102c957506001600160a01b0384163b155b156102f257604051639996b31560e01b81526001600160a01b038516600482015260240161012c565b50805b9392505050565b80511561030c5780518082602001fd5b60405163d6bda27560e01b815260040160405180910390fd5b80516001600160a01b038116811461033b575f5ffd5b919050565b634e487b7160e01b5f52604160045260245ffd5b5f5f60408385031215610365575f5ffd5b61036e83610325565b60208401519092506001600160401b03811115610389575f5ffd5b8301601f81018513610399575f5ffd5b80516001600160401b038111156103b2576103b2610340565b604051601f8201601f19908116603f011681016001600160401b03811182821017156103e0576103e0610340565b6040528181528282016020018710156103f7575f5ffd5b8160208401602083015e5f602083830101528093505050509250929050565b5f60208284031215610426575f5ffd5b6102f582610325565b5f82518060208501845e5f920191825250919050565b60805161014161045c5f395f602301526101415ff3fe608060405261000c61000e565b005b61001e610019610020565b6100b3565b565b5f7f000000000000000000000000000000000000000000000000000000000000000073ffffffffffffffffffffffffffffffffffffffff16635c60da1b6040518163ffffffff1660e01b8152600401602060405180830381865afa15801561008a573d5f5f3e3d5ffd5b505050506040513d601f19601f820116820180604052508101906100ae91906100d1565b905090565b365f5f375f5f365f845af43d5f5f3e8080156100cd573d5ff35b3d5ffd5b5f602082840312156100e1575f5ffd5b815173ffffffffffffffffffffffffffffffffffffffff81168114610104575f5ffd5b939250505056fea264697066735822122097e5cf8e459569ba5739624490eff4cba4f2f1948fcc85fbbc720647d4d09a5964736f6c634300081c00330000000000000000000000009bd72bf03f0f791e424786765a8f72c3b13f08f300000000000000000000000000000000000000000000000000000000000000400000000000000000000000000000000000000000000000000000000000000224c29d47580000000000000000000000000000000000000000000000000000000000000020000000000000000000000000000000000000000000000000000000000000018000000000000000000000000000000000000000000000000000000000000001c0000000000000000000000000c40fa5d8cf408baa63019137033d2698377fb2430000000000000000000000008c549fd544a66c2c951c5f6cd0243fbda95cf7010000000000000000000000003c4a0e537ed48430a7574a04b100b27e010ec700000000000000000000000000743be7f24caa96df8cf27413b43a5d916e4d0c2900000000000000000000000000000000000000000000000000038d7ea4c68000000000000000000000000000000000000000000000000000002386f26fc10000000000000000000000000000000000000000000000000000000000000002a3000000000000000000000000000000000000000000000000000000000000015180000000000000000000000000000000000000000000000000000000003b9aca000000000000000000000000000000000000000000000000000de0b6b3a7640000000000000000000000000000000000000000000000000000000000000000000c69534e522057726170706572000000000000000000000000000000000000000000000000000000000000000000000000000000000000000000000000000000057769534e5200000000000000000000000000000000000000000000000000000000000000000000000000000000000000000000000000000000000000"
        }
      ],
      "isFixedGasLimit": false
    },
    {
      "hash": "0xbdf0068b1971938142c797689b042924154b0dc114862562976d0a5fd6e6dadc",
      "transactionType": "CALL",
      "contractName": "BeaconProxy",
      "contractAddress": "0xfc33f2d6427dcb632502f179e7b867f445b8a67c",
      "function": null,
      "arguments": null,
      "transaction": {
        "from": "0xfabea8c75fe29baafcdc0afb3413cb5dfa11e310",
        "to": "0xfc33f2d6427dcb632502f179e7b867f445b8a67c",
        "gas": "0x15937",
        "value": "0x0",
        "input": "0xa5e90eee000000000000000000000000fabea8c75fe29baafcdc0afb3413cb5dfa11e3100000000000000000000000000000000000000000000000000000000000000001",
        "nonce": "0xca",
        "chainId": "0xaa36a7"
      },
      "additionalContracts": [],
      "isFixedGasLimit": false
    },
    {
      "hash": "0xe939d629e3ec7c5111f2a1764ae8e1ec287c9f67db615c9400547564f5d19e7d",
      "transactionType": "CALL",
      "contractName": null,
      "contractAddress": "0xa70556204dca898cb4fe4a5664ccee578058a912",
      "function": "setWhitelist(address,bool)",
      "arguments": [
        "0xfC33F2D6427dcb632502f179e7b867f445b8a67C",
        "true"
      ],
      "transaction": {
        "from": "0xfabea8c75fe29baafcdc0afb3413cb5dfa11e310",
        "to": "0xa70556204dca898cb4fe4a5664ccee578058a912",
        "gas": "0x12d9d",
        "value": "0x0",
        "input": "0x53d6fd59000000000000000000000000fc33f2d6427dcb632502f179e7b867f445b8a67c0000000000000000000000000000000000000000000000000000000000000001",
        "nonce": "0xcb",
        "chainId": "0xaa36a7"
      },
      "additionalContracts": [],
      "isFixedGasLimit": false
    }
  ],
  "receipts": [
    {
      "status": "0x1",
      "cumulativeGasUsed": "0x105eea2",
      "logs": [
        {
          "address": "0x8c549fd544a66c2c951c5f6cd0243fbda95cf701",
          "topics": [
            "0x8be0079c531659141344cd1fd0a4f28419497f9722a3daafe3b4186f6b6457e0",
            "0x0000000000000000000000000000000000000000000000000000000000000000",
            "0x000000000000000000000000fabea8c75fe29baafcdc0afb3413cb5dfa11e310"
          ],
          "data": "0x",
          "blockHash": "0x5e83b1b4bbd8d0ebf3ab4e06307ec381e18596dd115e4ae99eaa415a3d98c61a",
          "blockNumber": "0x96a2df",
          "blockTimestamp": "0x69451b18",
          "transactionHash": "0xe939d629e3ec7c5111f2a1764ae8e1ec287c9f67db615c9400547564f5d19e7d",
          "transactionIndex": "0x3f",
          "logIndex": "0x1a6",
          "removed": false
        }
      ],
      "logsBloom": "0x00000000000000000000000000000000000000000000000000800000000000000000000000000000000000000000000000000000000000000000000000000000000000000000000000000000000000000001000000000000000000000000000008000000020000000000000000000800000000000000000000000000000000401000000000000000000000000000000000000000000000000000000000000000000000000000000080000000000000000008000000000000000000000010000000000000000000000000000000000000000000000000000000000000000020000000000000000000000000000000000000000000000000000000000000002000",
      "type": "0x2",
      "transactionHash": "0xe939d629e3ec7c5111f2a1764ae8e1ec287c9f67db615c9400547564f5d19e7d",
      "transactionIndex": "0x3f",
      "blockHash": "0x5e83b1b4bbd8d0ebf3ab4e06307ec381e18596dd115e4ae99eaa415a3d98c61a",
      "blockNumber": "0x96a2df",
      "gasUsed": "0x54aac",
      "effectiveGasPrice": "0x105839",
      "from": "0xfabea8c75fe29baafcdc0afb3413cb5dfa11e310",
      "to": null,
      "contractAddress": "0x8c549fd544a66c2c951c5f6cd0243fbda95cf701"
    },
    {
      "status": "0x1",
      "cumulativeGasUsed": "0x1077141",
      "logs": [],
      "logsBloom": "0x00000000000000000000000000000000000000000000000000000000000000000000000000000000000000000000000000000000000000000000000000000000000000000000000000000000000000000000000000000000000000000000000000000000000000000000000000000000000000000000000000000000000000000000000000000000000000000000000000000000000000000000000000000000000000000000000000000000000000000000000000000000000000000000000000000000000000000000000000000000000000000000000000000000000000000000000000000000000000000000000000000000000000000000000000000000",
      "type": "0x2",
      "transactionHash": "0x46b54e613e549aec1afb14c75cc126229d469873b70af33ed4cbc0e8299f37a7",
      "transactionIndex": "0x40",
      "blockHash": "0x5e83b1b4bbd8d0ebf3ab4e06307ec381e18596dd115e4ae99eaa415a3d98c61a",
      "blockNumber": "0x96a2df",
      "gasUsed": "0x1829f",
      "effectiveGasPrice": "0x105839",
      "from": "0xfabea8c75fe29baafcdc0afb3413cb5dfa11e310",
      "to": "0x8c549fd544a66c2c951c5f6cd0243fbda95cf701",
      "contractAddress": null
    },
    {
      "status": "0x1",
      "cumulativeGasUsed": "0x10e5835",
      "logs": [
        {
          "address": "0xfc33f2d6427dcb632502f179e7b867f445b8a67c",
          "topics": [
            "0x1cf3b03a6cf19fa2baba4df148e9dcabedea7f8a5c07840e207e5c089be95d3e",
            "0x0000000000000000000000009bd72bf03f0f791e424786765a8f72c3b13f08f3"
          ],
          "data": "0x",
          "blockHash": "0x5e83b1b4bbd8d0ebf3ab4e06307ec381e18596dd115e4ae99eaa415a3d98c61a",
          "blockNumber": "0x96a2df",
          "blockTimestamp": "0x69451b18",
          "transactionHash": "0x56126c209a2b90849368bab4ac4cb14c88d3b9ad57b9eb0c85267f0c1ffb44ba",
          "transactionIndex": "0x41",
          "logIndex": "0x1a7",
          "removed": false
        },
        {
          "address": "0xfc33f2d6427dcb632502f179e7b867f445b8a67c",
          "topics": [
            "0xc7f505b2f371ae2175ee4913f4499e1f2633a7b5936321eed1cdaeb6115181d2"
          ],
          "data": "0x0000000000000000000000000000000000000000000000000000000000000001",
          "blockHash": "0x5e83b1b4bbd8d0ebf3ab4e06307ec381e18596dd115e4ae99eaa415a3d98c61a",
          "blockNumber": "0x96a2df",
          "blockTimestamp": "0x69451b18",
          "transactionHash": "0x56126c209a2b90849368bab4ac4cb14c88d3b9ad57b9eb0c85267f0c1ffb44ba",
          "transactionIndex": "0x41",
          "logIndex": "0x1a8",
          "removed": false
        },
        {
          "address": "0x9bd72bf03f0f791e424786765a8f72c3b13f08f3",
          "topics": [
            "0xf40fcec21964ffb566044d083b4073f29f7f7929110ea19e1b3ebe375d89055e"
          ],
          "data": "0x000000000000000000000000fc33f2d6427dcb632502f179e7b867f445b8a67c",
          "blockHash": "0x5e83b1b4bbd8d0ebf3ab4e06307ec381e18596dd115e4ae99eaa415a3d98c61a",
          "blockNumber": "0x96a2df",
          "blockTimestamp": "0x69451b18",
          "transactionHash": "0x56126c209a2b90849368bab4ac4cb14c88d3b9ad57b9eb0c85267f0c1ffb44ba",
          "transactionIndex": "0x41",
          "logIndex": "0x1a9",
          "removed": false
        }
      ],
      "logsBloom": "0x01000000000000000000000000000000000000000000000000000000000000000000000000000000002000000000000000000000000000000000000000020000000000000000000080000000101000000000000005000001000100000000000000000000000000000000000000000000000000000000000000000000000000000000000000000000000800000000080000000000000080000000000010000000000000000000000000000000000000000000000000000000000000000000000000000000000000000000000000000000000000000004000000800000000000000000000000011000000000000000000000000000000000000000000000000000",
      "type": "0x2",
      "transactionHash": "0x56126c209a2b90849368bab4ac4cb14c88d3b9ad57b9eb0c85267f0c1ffb44ba",
      "transactionIndex": "0x41",
      "blockHash": "0x5e83b1b4bbd8d0ebf3ab4e06307ec381e18596dd115e4ae99eaa415a3d98c61a",
      "blockNumber": "0x96a2df",
      "gasUsed": "0x6e6f4",
      "effectiveGasPrice": "0x105839",
      "from": "0xfabea8c75fe29baafcdc0afb3413cb5dfa11e310",
      "to": "0x9bd72bf03f0f791e424786765a8f72c3b13f08f3",
      "contractAddress": null
    },
    {
      "status": "0x1",
      "cumulativeGasUsed": "0x10f5224",
      "logs": [
        {
          "address": "0xfc33f2d6427dcb632502f179e7b867f445b8a67c",
          "topics": [
            "0xbb95c67100dfe9f37286a68fc73daf0759c81c336696ec263c5d841961ab1f15",
            "0x000000000000000000000000fabea8c75fe29baafcdc0afb3413cb5dfa11e310"
          ],
          "data": "0x0000000000000000000000000000000000000000000000000000000000000001",
          "blockHash": "0x5e83b1b4bbd8d0ebf3ab4e06307ec381e18596dd115e4ae99eaa415a3d98c61a",
          "blockNumber": "0x96a2df",
          "blockTimestamp": "0x69451b18",
          "transactionHash": "0xbdf0068b1971938142c797689b042924154b0dc114862562976d0a5fd6e6dadc",
          "transactionIndex": "0x42",
          "logIndex": "0x1aa",
          "removed": false
        }
      ],
      "logsBloom": "0x09000000000400000000000000000000000000000000000000000000000000000000000000000000000000000000000000000000000000000000000000000000000000000000000000000000000000000000000000000001000000000000000008000000000000000000000000000000000000000000000000000000000000000000000000000000000000000000000000000000000000000000000000000000000000000000000000000000000000000000000000000000000000000010000000000000000000000000000000000000000040000000000000000000000000000000000000001000000000000000000000000000000000000000000000002000",
      "type": "0x2",
      "transactionHash": "0xbdf0068b1971938142c797689b042924154b0dc114862562976d0a5fd6e6dadc",
      "transactionIndex": "0x42",
      "blockHash": "0x5e83b1b4bbd8d0ebf3ab4e06307ec381e18596dd115e4ae99eaa415a3d98c61a",
      "blockNumber": "0x96a2df",
      "gasUsed": "0xf9ef",
      "effectiveGasPrice": "0x105839",
      "from": "0xfabea8c75fe29baafcdc0afb3413cb5dfa11e310",
      "to": "0xfc33f2d6427dcb632502f179e7b867f445b8a67c",
      "contractAddress": null
    },
    {
      "status": "0x1",
      "cumulativeGasUsed": "0x1102c82",
      "logs": [
        {
          "address": "0xa70556204dca898cb4fe4a5664ccee578058a912",
          "topics": [
            "0x3f50d04114467f3ca25c50f1540e2864f8a852c0380bbbbb603ebfda10b5baf2",
            "0x000000000000000000000000fc33f2d6427dcb632502f179e7b867f445b8a67c"
          ],
          "data": "0x0000000000000000000000000000000000000000000000000000000000000001",
          "blockHash": "0x5e83b1b4bbd8d0ebf3ab4e06307ec381e18596dd115e4ae99eaa415a3d98c61a",
          "blockNumber": "0x96a2df",
          "blockTimestamp": "0x69451b18",
          "transactionHash": "0x1e8b3ec39138a3e5464c65626adae9e0dde1bf7801a06fdc43f6c5ff5a696dde",
          "transactionIndex": "0x43",
          "logIndex": "0x1ab",
          "removed": false
        }
      ],
      "logsBloom": "0x00000000000000000000000000000000000000000000000000000000000000000000000000000000000000000000000400000000000000000000000000000000000400002000000000000000000000000000000000000000000000002000000000000000000000000000000000000000000000000000000000000000000000000000000000000000000000000000000000000002000000000000000000000000000000000000000000000000000000000000000000000000000000000000000000000000020000000000000000000000000000000000000000000100000000000004000000000000002000000000000000000000000000000000000000000000",
      "type": "0x2",
      "transactionHash": "0x1e8b3ec39138a3e5464c65626adae9e0dde1bf7801a06fdc43f6c5ff5a696dde",
      "transactionIndex": "0x43",
      "blockHash": "0x5e83b1b4bbd8d0ebf3ab4e06307ec381e18596dd115e4ae99eaa415a3d98c61a",
      "blockNumber": "0x96a2df",
      "gasUsed": "0xda5e",
      "effectiveGasPrice": "0x105839",
      "from": "0xfabea8c75fe29baafcdc0afb3413cb5dfa11e310",
      "to": "0xa70556204dca898cb4fe4a5664ccee578058a912",
      "contractAddress": null
    }
  ],
  "libraries": [
    "src/libraries/NodeLib.sol:NodeLib:0x0371bed4f23955eec7f6d940b5dee900ae776613"
  ],
  "pending": [],
  "returns": {},
  "timestamp": 1766136657792,
  "chain": 11155111,
  "commit": "c5c4620"
}