{
  "transactions": [
    {
      "hash": "0x4eea2b57fa4d89349cb4b4b48c2f7cd40e1c20211d1849935f372c257b39647c",
      "transactionType": "CALL",
      "contractName": null,
      "contractAddress": "0x6ca200319a0d4127a7a473d6891b86f34e312f42",
      "function": "updateComponentAllocation(address,uint64,uint64,address)",
      "arguments": [
        "0x803Ae650Bc7c40b03Fe1C33F2a787E81f1c4819c",
        "100000000000000000",
        "10000000000000000",
        "0x7124a7DF6D804FCba0B0A06fF63a0cC831c6b0e6"
      ],
      "transaction": {
        "from": "0x65c4de6e6b1eb9484fa49edcc8ea571a61c60d3e",
        "to": "0x6ca200319a0d4127a7a473d6891b86f34e312f42",
        "gas": "0x14214",
        "value": "0x0",
        "input": "0x598a23f5000000000000000000000000803ae650bc7c40b03fe1c33f2a787e81f1c4819c000000000000000000000000000000000000000000000000016345785d8a0000000000000000000000000000000000000000000000000000002386f26fc100000000000000000000000000007124a7df6d804fcba0b0a06ff63a0cc831c6b0e6",
        "nonce": "0x114",
        "chainId": "0xa4b1"
      },
      "additionalContracts": [],
      "isFixedGasLimit": false
    },
    {
      "hash": "0xbb4eb3a288e9bd30514c7e7096ae76fda2f713957293c4c054800f08257ad075",
      "transactionType": "CALL",
      "contractName": null,
      "contractAddress": "0x6ca200319a0d4127a7a473d6891b86f34e312f42",
      "function": "updateComponentAllocation(address,uint64,uint64,address)",
      "arguments": [
        "0x16C796208c6E2d397Ec49D69D207a9cB7d072f04",
        "204300000000000000",
        "10000000000000000",
        "0x6a200b1Bafc7183741809B35E1B0DE9E4f4c0828"
      ],
      "transaction": {
        "from": "0x65c4de6e6b1eb9484fa49edcc8ea571a61c60d3e",
        "to": "0x6ca200319a0d4127a7a473d6891b86f34e312f42",
        "gas": "0x141f9",
        "value": "0x0",
        "input": "0x598a23f500000000000000000000000016c796208c6e2d397ec49d69d207a9cb7d072f0400000000000000000000000000000000000000000000000002d5d1c47f9cc000000000000000000000000000000000000000000000000000002386f26fc100000000000000000000000000006a200b1bafc7183741809b35e1b0de9e4f4c0828",
        "nonce": "0x115",
        "chainId": "0xa4b1"
      },
      "additionalContracts": [],
      "isFixedGasLimit": false
    },
    {
      "hash": "0xae601adde7feb56a41cdbfe67bc15828b8ac4adb9b8b0906208c624bcc3a7354",
      "transactionType": "CALL",
      "contractName": null,
      "contractAddress": "0x6ca200319a0d4127a7a473d6891b86f34e312f42",
      "function": "updateComponentAllocation(address,uint64,uint64,address)",
      "arguments": [
        "0x1A996cb54bb95462040408C06122D45D6Cdb6096",
        "242700000000000000",
        "10000000000000000",
        "0x7124a7DF6D804FCba0B0A06fF63a0cC831c6b0e6"
      ],
      "transaction": {
        "from": "0x65c4de6e6b1eb9484fa49edcc8ea571a61c60d3e",
        "to": "0x6ca200319a0d4127a7a473d6891b86f34e312f42",
        "gas": "0x14224",
        "value": "0x0",
        "input": "0x598a23f50000000000000000000000001a996cb54bb95462040408c06122d45d6cdb6096000000000000000000000000000000000000000000000000035e3e5d36fcc000000000000000000000000000000000000000000000000000002386f26fc100000000000000000000000000007124a7df6d804fcba0b0a06ff63a0cc831c6b0e6",
        "nonce": "0x116",
        "chainId": "0xa4b1"
      },
      "additionalContracts": [],
      "isFixedGasLimit": false
    },
    {
      "hash": "0x56f2dde6c1a5bcd66746c4f5ca3a7d1eef96fe83f53976428df535bce0f042f4",
      "transactionType": "CALL",
      "contractName": null,
      "contractAddress": "0x6ca200319a0d4127a7a473d6891b86f34e312f42",
      "function": "updateComponentAllocation(address,uint64,uint64,address)",
      "arguments": [
        "0x890A69EF363C9c7BdD5E36eb95Ceb569F63ACbF6",
        "63500000000000000",
        "10000000000000000",
        "0x7124a7DF6D804FCba0B0A06fF63a0cC831c6b0e6"
      ],
      "transaction": {
        "from": "0x65c4de6e6b1eb9484fa49edcc8ea571a61c60d3e",
        "to": "0x6ca200319a0d4127a7a473d6891b86f34e312f42",
        "gas": "0x14214",
        "value": "0x0",
        "input": "0x598a23f5000000000000000000000000890a69ef363c9c7bdd5e36eb95ceb569f63acbf600000000000000000000000000000000000000000000000000e198e9df3cc000000000000000000000000000000000000000000000000000002386f26fc100000000000000000000000000007124a7df6d804fcba0b0a06ff63a0cc831c6b0e6",
        "nonce": "0x117",
        "chainId": "0xa4b1"
      },
      "additionalContracts": [],
      "isFixedGasLimit": false
    },
    {
      "hash": "0x23f9b87cb1a3131aafbb4b12a37c44732a1bf0964c517936fe91b02b651eb197",
      "transactionType": "CALL",
      "contractName": null,
      "contractAddress": "0x6ca200319a0d4127a7a473d6891b86f34e312f42",
      "function": "updateComponentAllocation(address,uint64,uint64,address)",
      "arguments": [
        "0x74E6AFeF5705BEb126C6d3Bf46f8fad8F3e07825",
        "339500000000000000",
        "10000000000000000",
        "0x7124a7DF6D804FCba0B0A06fF63a0cC831c6b0e6"
      ],
      "transaction": {
        "from": "0x65c4de6e6b1eb9484fa49edcc8ea571a61c60d3e",
        "to": "0x6ca200319a0d4127a7a473d6891b86f34e312f42",
        "gas": "0x14224",
        "value": "0x0",
        "input": "0x598a23f500000000000000000000000074e6afef5705beb126c6d3bf46f8fad8f3e0782500000000000000000000000000000000000000000000000004b62573853ec000000000000000000000000000000000000000000000000000002386f26fc100000000000000000000000000007124a7df6d804fcba0b0a06ff63a0cc831c6b0e6",
        "nonce": "0x118",
        "chainId": "0xa4b1"
      },
      "additionalContracts": [],
      "isFixedGasLimit": false
    },
    {
      "hash": "0xadaffb591411f46cc2bddd62b65e18e3f77f75f06e1e0be413c473a9d5e5ede8",
      "transactionType": "CALL",
      "contractName": null,
      "contractAddress": "0x6ca200319a0d4127a7a473d6891b86f34e312f42",
      "function": "addRebalancer(address)",
      "arguments": [
        "0x65C4De6E6B1eb9484FA49eDCC8Ea571A61c60D3e"
      ],
      "transaction": {
        "from": "0x65c4de6e6b1eb9484fa49edcc8ea571a61c60d3e",
        "to": "0x6ca200319a0d4127a7a473d6891b86f34e312f42",
        "gas": "0x14a6d",
        "value": "0x0",
        "input": "0x0c97991900000000000000000000000065c4de6e6b1eb9484fa49edcc8ea571a61c60d3e",
        "nonce": "0x119",
        "chainId": "0xa4b1"
      },
      "additionalContracts": [],
      "isFixedGasLimit": false
    }
  ],
  "receipts": [
    {
      "status": "0x1",
      "cumulativeGasUsed": "0x1bb5dc",
      "logs": [
        {
          "address": "0x6ca200319a0d4127a7a473d6891b86f34e312f42",
          "topics": [
            "0x20fae6bd552a11c904f444d55360299e6e87aec568d0c9073952cff79facb6ca",
            "0x000000000000000000000000803ae650bc7c40b03fe1c33f2a787e81f1c4819c"
          ],
          "data": "0x000000000000000000000000000000000000000000000000016345785d8a0000000000000000000000000000000000000000000000000000002386f26fc100000000000000000000000000007124a7df6d804fcba0b0a06ff63a0cc831c6b0e6",
          "blockHash": "0x2b0bc221dbb4f9f48fa8db2bd239f747d4d194169bfecac893363cfb4642cb61",
          "blockNumber": "0x14aeb309",
          "transactionHash": "0x4eea2b57fa4d89349cb4b4b48c2f7cd40e1c20211d1849935f372c257b39647c",
          "transactionIndex": "0xd",
          "logIndex": "0x1c",
          "removed": false
        }
      ],
      "logsBloom": "0x00000000000000000000000000000000000000000000000000000000000000000000000000000000000000000000000000000000000000000000002000000000000000000000000000000000000000800000000000000000000000000000000000000000000000000000000000000000000000400000000000000000208000000000000000000000000000000000000000000000004000000000000000000000000000000000000000000000000000000000000000000000000000000000000000000010000000000000000000000000000000000400000000000000000000000000000000000000000000000000000000000000000000000200000000000000",
      "type": "0x2",
      "transactionHash": "0x4eea2b57fa4d89349cb4b4b48c2f7cd40e1c20211d1849935f372c257b39647c",
      "transactionIndex": "0xd",
      "blockHash": "0x2b0bc221dbb4f9f48fa8db2bd239f747d4d194169bfecac893363cfb4642cb61",
      "blockNumber": "0x14aeb309",
      "gasUsed": "0xe7e5",
      "effectiveGasPrice": "0x989680",
      "from": "0x65c4de6e6b1eb9484fa49edcc8ea571a61c60d3e",
      "to": "0x6ca200319a0d4127a7a473d6891b86f34e312f42",
      "contractAddress": null,
      "gasUsedForL1": "0x3539",
      "l1BlockNumber": "0x15a54f7"
    },
    {
      "status": "0x1",
      "cumulativeGasUsed": "0x7bc82",
      "logs": [
        {
          "address": "0x6ca200319a0d4127a7a473d6891b86f34e312f42",
          "topics": [
            "0x20fae6bd552a11c904f444d55360299e6e87aec568d0c9073952cff79facb6ca",
            "0x00000000000000000000000016c796208c6e2d397ec49d69d207a9cb7d072f04"
          ],
          "data": "0x00000000000000000000000000000000000000000000000002d5d1c47f9cc000000000000000000000000000000000000000000000000000002386f26fc100000000000000000000000000006a200b1bafc7183741809b35e1b0de9e4f4c0828",
          "blockHash": "0x4574e160b86376b11d10348001cd1a9879f2cb5f91c010cbf9d5f42f81658d3f",
          "blockNumber": "0x14aeb30d",
          "transactionHash": "0xbb4eb3a288e9bd30514c7e7096ae76fda2f713957293c4c054800f08257ad075",
          "transactionIndex": "0x5",
          "logIndex": "0xb",
          "removed": false
        }
      ],
      "logsBloom": "0x00000000000000000000000000000000000000000000000000000000000000000000000000000000000000000000000000000010000000000000800000000000000000000000000000000000000000000000000000000000000000000000000000000000000000000000000000008000000000400000000000000000200000000000000000000000000000000000000000000000004000000000000000000000000000000000000000000000000000000000000000000000000000000000000000000010000000000000000000000000000000000400000000000000000000000000000000000000000000000000000000000000000000000200000000000000",
      "type": "0x2",
      "transactionHash": "0xbb4eb3a288e9bd30514c7e7096ae76fda2f713957293c4c054800f08257ad075",
      "transactionIndex": "0x5",
      "blockHash": "0x4574e160b86376b11d10348001cd1a9879f2cb5f91c010cbf9d5f42f81658d3f",
      "blockNumber": "0x14aeb30d",
      "gasUsed": "0xe7d0",
      "effectiveGasPrice": "0x989680",
      "from": "0x65c4de6e6b1eb9484fa49edcc8ea571a61c60d3e",
      "to": "0x6ca200319a0d4127a7a473d6891b86f34e312f42",
      "contractAddress": null,
      "gasUsedForL1": "0x3539",
      "l1BlockNumber": "0x15a54f7",
      "timeboosted": false
    },
    {
      "status": "0x1",
      "cumulativeGasUsed": "0x4788b3",
      "logs": [
        {
          "address": "0x6ca200319a0d4127a7a473d6891b86f34e312f42",
          "topics": [
            "0x20fae6bd552a11c904f444d55360299e6e87aec568d0c9073952cff79facb6ca",
            "0x0000000000000000000000001a996cb54bb95462040408c06122d45d6cdb6096"
          ],
          "data": "0x000000000000000000000000000000000000000000000000035e3e5d36fcc000000000000000000000000000000000000000000000000000002386f26fc100000000000000000000000000007124a7df6d804fcba0b0a06ff63a0cc831c6b0e6",
          "blockHash": "0xf690b9bdcd54962eebc9bce64a8edb37ab9053674e658f77be5856197e5602e3",
          "blockNumber": "0x14aeb318",
          "transactionHash": "0xae601adde7feb56a41cdbfe67bc15828b8ac4adb9b8b0906208c624bcc3a7354",
          "transactionIndex": "0x9",
          "logIndex": "0x8",
          "removed": false
        }
      ],
      "logsBloom": "0x00000000000000000000000000000000000000000000000020000000000000000000000000000000000000000000000000000000000000000000000000000000000000000000000000000000000000000000000000000000000000000000000000000000000000000000000000000000000000400000000000000000200000000000000000000000000000000000000000000000004000000000000000000001000000000000000000000000000000000000000000000000000000000000000000000010000000000000000000000000000000000400000000000008000000000000000000000000000000000000000000000000000000000200000000000000",
      "type": "0x2",
      "transactionHash": "0xae601adde7feb56a41cdbfe67bc15828b8ac4adb9b8b0906208c624bcc3a7354",
      "transactionIndex": "0x9",
      "blockHash": "0xf690b9bdcd54962eebc9bce64a8edb37ab9053674e658f77be5856197e5602e3",
      "blockNumber": "0x14aeb318",
      "gasUsed": "0xe7f1",
      "effectiveGasPrice": "0x989680",
      "from": "0x65c4de6e6b1eb9484fa49edcc8ea571a61c60d3e",
      "to": "0x6ca200319a0d4127a7a473d6891b86f34e312f42",
      "contractAddress": null,
      "gasUsedForL1": "0x3539",
      "l1BlockNumber": "0x15a54f7",
      "timeboosted": false
    },
    {
      "status": "0x1",
      "cumulativeGasUsed": "0x8dd26",
      "logs": [
        {
          "address": "0x6ca200319a0d4127a7a473d6891b86f34e312f42",
          "topics": [
            "0x20fae6bd552a11c904f444d55360299e6e87aec568d0c9073952cff79facb6ca",
            "0x000000000000000000000000890a69ef363c9c7bdd5e36eb95ceb569f63acbf6"
          ],
          "data": "0x00000000000000000000000000000000000000000000000000e198e9df3cc000000000000000000000000000000000000000000000000000002386f26fc100000000000000000000000000007124a7df6d804fcba0b0a06ff63a0cc831c6b0e6",
          "blockHash": "0xc5ad48f05995bb427be853b7d0eb30520e5170a6743309496f903bc4525beb3d",
          "blockNumber": "0x14aeb31c",
          "transactionHash": "0x56f2dde6c1a5bcd66746c4f5ca3a7d1eef96fe83f53976428df535bce0f042f4",
          "transactionIndex": "0x4",
          "logIndex": "0xa",
          "removed": false
        }
      ],
      "logsBloom": "0x00000000000000000000000000000000000000000000000000000000000000000080000000000000000000000000000000000000000000000000000000000000000000000000000000000000000000000000000000000000000000004000000000000000000100000000000000000000000000400000000000000000200000000000000000000000000000000000000000000000004000000000000000000000000000000000000000000000000000000000000000000000000000000000000000000010000000000000000000000000000000000400000000000000000000000000000000000000000000000000000000000000000000000200000000000000",
      "type": "0x2",
      "transactionHash": "0x56f2dde6c1a5bcd66746c4f5ca3a7d1eef96fe83f53976428df535bce0f042f4",
      "transactionIndex": "0x4",
      "blockHash": "0xc5ad48f05995bb427be853b7d0eb30520e5170a6743309496f903bc4525beb3d",
      "blockNumber": "0x14aeb31c",
      "gasUsed": "0xe7e5",
      "effectiveGasPrice": "0x989680",
      "from": "0x65c4de6e6b1eb9484fa49edcc8ea571a61c60d3e",
      "to": "0x6ca200319a0d4127a7a473d6891b86f34e312f42",
      "contractAddress": null,
      "gasUsedForL1": "0x3539",
      "l1BlockNumber": "0x15a54f8",
      "timeboosted": false
    },
    {
      "status": "0x1",
      "cumulativeGasUsed": "0x16d159",
      "logs": [
        {
          "address": "0x6ca200319a0d4127a7a473d6891b86f34e312f42",
          "topics": [
            "0x20fae6bd552a11c904f444d55360299e6e87aec568d0c9073952cff79facb6ca",
            "0x00000000000000000000000074e6afef5705beb126c6d3bf46f8fad8f3e07825"
          ],
          "data": "0x00000000000000000000000000000000000000000000000004b62573853ec000000000000000000000000000000000000000000000000000002386f26fc100000000000000000000000000007124a7df6d804fcba0b0a06ff63a0cc831c6b0e6",
          "blockHash": "0x9037be78f817cf36df4bc1581f27935c717814ec4649fc90d520afb023094c5a",
          "blockNumber": "0x14aeb320",
          "transactionHash": "0x23f9b87cb1a3131aafbb4b12a37c44732a1bf0964c517936fe91b02b651eb197",
          "transactionIndex": "0xa",
          "logIndex": "0xc",
          "removed": false
        }
      ],
      "logsBloom": "0x00000000000000000000000000000000000000000000000000000000000000000000000000000000000000000000000000000000000000000000000000000000000000000000000000000000000000000000000000000000000000000000000000000000000000000000000000000000000000400000000000000000200000000000000000000000000100000000000000000000004000000000000000010000000000000000000000004000000000000000000000000000000000000000000000000010000000000000000000000000000000000400000000000000000000000000000000000000000000000000000000000000000000000200000000000000",
      "type": "0x2",
      "transactionHash": "0x23f9b87cb1a3131aafbb4b12a37c44732a1bf0964c517936fe91b02b651eb197",
      "transactionIndex": "0xa",
      "blockHash": "0x9037be78f817cf36df4bc1581f27935c717814ec4649fc90d520afb023094c5a",
      "blockNumber": "0x14aeb320",
      "gasUsed": "0xe7f1",
      "effectiveGasPrice": "0x989680",
      "from": "0x65c4de6e6b1eb9484fa49edcc8ea571a61c60d3e",
      "to": "0x6ca200319a0d4127a7a473d6891b86f34e312f42",
      "contractAddress": null,
      "gasUsedForL1": "0x3539",
      "l1BlockNumber": "0x15a54f8"
    },
    {
      "status": "0x1",
      "cumulativeGasUsed": "0x2ef3a",
      "logs": [
        {
          "address": "0x6ca200319a0d4127a7a473d6891b86f34e312f42",
          "topics": [
            "0x393f492cec05207d60964be18fd0acaaaff080c575e52b64fa439a0e6bc29c61",
            "0x00000000000000000000000065c4de6e6b1eb9484fa49edcc8ea571a61c60d3e"
          ],
          "data": "0x",
          "blockHash": "0x0136e9cc6026d40868b6006c4a2045599a09e8e3e35fe1b89a6fd0031409e0dd",
          "blockNumber": "0x14aeb324",
          "transactionHash": "0xadaffb591411f46cc2bddd62b65e18e3f77f75f06e1e0be413c473a9d5e5ede8",
          "transactionIndex": "0x3",
          "logIndex": "0x2",
          "removed": false
        }
      ],
      "logsBloom": "0x00000000000000000000000000000000000000000000000000000000800000000000000000000000000000000000000000000000000000000000200000000000000000000000000400000000000000000000000000000000000000000000000000000008000000000000000000000000000000400000000000000000200000000000000000000000000000000000000000000000000000000000000000000000000000000000000000000000000000000000000000200000000000000000000000000000000000000000000000000000000000000040000000000000000000000000000000000000000000000000000000000000000000000200000000000000",
      "type": "0x2",
      "transactionHash": "0xadaffb591411f46cc2bddd62b65e18e3f77f75f06e1e0be413c473a9d5e5ede8",
      "transactionIndex": "0x3",
      "blockHash": "0x0136e9cc6026d40868b6006c4a2045599a09e8e3e35fe1b89a6fd0031409e0dd",
      "blockNumber": "0x14aeb324",
      "gasUsed": "0xf09e",
      "effectiveGasPrice": "0x989680",
      "from": "0x65c4de6e6b1eb9484fa49edcc8ea571a61c60d3e",
      "to": "0x6ca200319a0d4127a7a473d6891b86f34e312f42",
      "contractAddress": null,
      "gasUsedForL1": "0x2052",
      "l1BlockNumber": "0x15a54f8"
    }
  ],
  "libraries": [],
  "pending": [],
  "returns": {},
  "timestamp": 1749836655,
  "chain": 42161,
  "commit": "aab00df"
}